:100000000FC033C032C031C030C02FC02EC02DC091
:100010002CC02BC02AC029C028C027C026C0D802A7
:1000200011241FBECFE5D2E0DEBFCDBF10E0A0E6B9
:10003000B0E0ECE9F8E002C005900D92A63EB107F1
:10004000D9F721E0A6EEB0E001C01D92A83BB207AF
:10005000E1F710E0C0E1D0E003C02197FE0116D423
:10006000CF30D107D1F75DD217C4CACF1F93CF933A
:10007000DF93FC0122812223A1F0EC01C756DF4F60
:1000800014E2612F81EA91E09FD2688161606993F7
:1000900081EA91E09FD281EA91E0C3D21F5F1832DA
:1000A00081F7DF91CF911F9108951F93CF93DF9335
:1000B000FC012281222399F0EC01C857DF4F14E3A1
:1000C000612F81EA91E080D2199260E081EA91E0AB
:1000D00081D281EA91E0A5D21F5F183389F7DF91C1
:1000E000CF911F910895CF93DF93EC01198218826D
:1000F000FC01E857FF4F2B813C8180E090E08217A4
:10010000930721F01192108A0196F9CF64E381EAF6
:1001100091E05AD281EA91E084D291E0811190E09D
:100120009A83CE01DF91CF91C0CFCF92DF92EF9231
:10013000FF920F931F93CF93DF937B018C0108579E
:100140001F4FC4E3F70161917F01862F8F77D62F70
:10015000D0786801E82FF0E0EA59FF4F9081F8016C
:100160009083882391F06C2F81EA91E02DD20F5F6C
:100170001F4FF60160816D2B81EA91E02BD281EA5D
:1001800091E04FD2CF5FC833E9F6DF91CF911F9155
:100190000F91FF90EF90DF90CF900895BB9A089554
:1001A000BB98089585E080BF1CBC0895F7DF80EA06
:1001B0008A95F1F7F5DF97E19A95F1F7000086B39C
:1001C00098E89A95F1F700C083FB882780F9089595
:1001D0001F93CF93DF93182FC8E0D0E010FF09C022
:1001E000DDDF82E08A95F1F7DBDF85E18A95F1F7C3
:1001F00008C0D4DF84E18A95F1F7D2DF83E08A95E5
:10020000F1F700001695219749F7DF91CF911F91E3
:100210000895EF92FF921F93CF93DF93C0E0D0E059
:1002200010E0BCDF22E02A95F1F7BADF83E08A957F
:10023000F1F786B383FBEE24E0F8F12CC7010C2E16
:1002400001C0880F0A94EAF7182B82E18A95F1F72A
:1002500000002196C830D10521F7812FDF91CF9181
:100260001F91FF90EF9008950F931F93CF93DF930B
:100270008C01C8E9D1E0CE018859914080179107DF
:100280001CF4C7DF8993F7CFDF91CF911F910F91B6
:100290000895982F82958F706AE0ABD29F70890F76
:1002A00008956AE0C0D28295807F890F089561E544
:1002B00081EA91E089D162E081EA91E08BD180917D
:1002C0009701EFDF682F81EA91E084D18091960158
:1002D000E8DF682F81EA91E07DD180919501E1DF2F
:1002E000682F81EA91E076D180919301DADF682F5F
:1002F00081EA91E06FD180919401D3DF682F81EA88
:1003000091E068D180919201CCDF682F81EA91E081
:1003100061D180919101C5DF682F81EA91E05AD1C6
:1003200081EA91E07EC161E581EA91E04DD162E030
:1003300081EA91E04FD181EA91E073D147E061E534
:1003400081EA91E070D181EA91E083D18F77A1DFDA
:100350008093970181EA91E07CD18F779ADF809337
:10036000960181EA91E075D18F7393DF80939501B7
:1003700081EA91E06ED18F738CDF8093930181EAE3
:1003800091E067D1877085DF8093940181EA91E0E5
:1003900060D18F717EDF8093920181EA91E059D123
:1003A00078DF809391010895BEDF809195013AE056
:1003B000632F39D2805D8093610020E3290F209361
:1003C0006200809196012FD2805D80936300905DE2
:1003D000909364008091E6009091E70001971816D1
:1003E00019062CF49093E7008093E6000DC082E09C
:1003F00090E09093E7008093E60081E090916000A8
:10040000911180E08093600080916000882319F052
:100410002068209362000895EF92FF920F931F933C
:10042000CF93DF93C3DE882349F085E68093610094
:1004300082E780936200809363006CC08CECC8DE1E
:1004400084E4C6DEE6DE8F3FE9F7B0DE8CECC0DE8A
:100450008EEBBEDE89E090E007DFE0919801F0913D
:100460009901EF0154E0D595C7955A95E1F79E01A2
:10047000C436D10594F024563109CE0164E670E00B
:10048000DED1605D60936100C9016AE070E0D7D1A0
:10049000605D60936200805D38C0D7FF04C0222792
:1004A00033272C1B3D0B4AE0E42EF12CC901B70188
:1004B000C6D1082FCB01B701C2D1F82E24363105A1
:1004C0006CF4CF018F7099276AE070E09BD124E033
:1004D000959587952A95E1F7182F01C010E088EED1
:1004E00090E0E3DD90E39F0D80E3800FD7FF06C02F
:1004F0002DE2209361009093620007C09093610009
:1005000080688093620080E3810F8093630083E4BE
:1005100080936400DF91CF911F910F91FF90EF9036
:10052000089581EA91E04FD03DDE1092970189E174
:100530008093960186E18093950187E080939401F2
:1005400086E0809393018CE08093920184E1809314
:100550009101ADDE87EA91E60197F1F700C0000056
:1005600088EE90E0C0DD87EA91E60197F1F700C0E0
:10057000000088EE90E07ADDC0E1D0E011E001E01B
:1005800021971C161D061CF01027C0E1D0E0112396
:1005900011F00ADF01C040DF61E670E088EE90E014
:1005A000C4DD8FE493EC0197F1F700C00000E8CFC1
:1005B00082E090E09093EC008093EB009093E70052
:1005C0008093E600089550C01092A401660F6093D6
:1005D000A5010895E091A401E13150F4EF5FE093AB
:1005E000A401F0E0EB55FE4F608381E090E00895B8
:1005F00080E090E00895CF93C62F6091A4016F5FD3
:1006000085EA91E0DED01092A401882329F0CC2362
:1006100029F0DAD0811102C0CF9131C080E0CF91B2
:10062000089561E0E8CF1092A3014093A201660F04
:10063000862F81608093A50161E0640F85EA91E0D7
:10064000C0D0882319F0C0D0811101C018C080E04B
:100650000895E091A301EF5FE093A301F0E0EB5573
:10066000FE4F808190E00895C09AC29ABA9AB89AD3
:100670008FEF8FB98AE28DB980EF8EB9089580919E
:10068000B70108958EB98BE200C000C000008DB99B
:10069000B29BFECF00C000C08DB9769BF5CF00C0E5
:1006A00000C000008FB19FEF9FB9B89A0895C29A19
:1006B000C29BFECF00C000C00000C09800C000C0B8
:1006C000C298C09A779905C083E08093B70180E013
:1006D000089581E00895AF92BF92CF92DF92EF929A
:1006E000FF920F931F93CF93DF938C01E62E80919F
:1006F000B70181608093B701F801908190FD03C03C
:1007000082608093B701D3DF882309F44FC0FE2CA9
:10071000E801BB24BA94AA24A3948091B701837002
:100720009E012F5F3F4F6901882361F1C298888144
:100730008FB980EFA7DFB8988EEFA4DF9091B70153
:1007400080FF0BC0892F817090FF05C081E08093EE
:10075000B70180E02BC092E00EC0892F85708430F5
:1007600069F4F801808181608083A092B7019FDFE6
:10077000811116C09AE09093B70118C09E7F9093A4
:10078000B7010CC0B89880EF7DDF8883F1E0FF12DD
:1007900002C0BFB801C01FB88EEF74DFE60102C00F
:1007A000FE2CE801FA94F110B8CF81E0DF91CF91EF
:1007B0001F910F91FF90EF90DF90CF90BF90AF907F
:1007C00008951092B70187CFC098C29AB29BFECF0E
:1007D00000C000C0C09A00C000C000009EB1892FB8
:1007E000807295FD04C094E09093B701089581E074
:1007F0000895002480FD060E660F11F08695D1F74E
:10080000802D08950024552704C0080E591F880F15
:10081000991F009729F076956795B8F37105B9F798
:10082000802D952F0895991B79E004C0991F961784
:1008300008F0961B881F7A95C9F78095089597FB55
:10084000072E16F4009406D077FD08D00BD007FCD5
:1008500005D03EF4909581959F4F089570956195D0
:100860007F4F0895AA1BBB1B51E107C0AA1FBB1FE6
:10087000A617B70710F0A61BB70B881F991F5A952C
:10088000A9F780959095BC01CD010895EE0FFF1F4B
:0C0890000590F491E02D0994F894FFCF3E
:10089C00013030303000000000000000000000008B
:1008AC00000000000000000000000000000000003C
:1008BC000000000000000082210000000002390F3F
:1008CC000000004080003F065B4F666D7D077F6F28
:1008DC0000000048005300777C395E79716F760612
:1008EC001E003800543F7367506D783E0000006E58
:1008FC000039000F0008635F7C585E7B716F7402D7
:10090C001E000600545C7367506D781C0000006E6E
:06091C000039300F00005D
:00000001FF
